:1000000000000120910100000D0200007369010051
:1000100011020000130200001502000000000000A1
:1000200000000000000000000000000011040000BB
:100030001902000000000000410400002D2D010005
:10004000F1660100F966010001670100096701001E
:10005000116701001967010021670100296701008C
:1000600031670100396701004167010049670100FC
:10007000516701005967010061670100696701006C
:1000800071670100796701008167010089670100DC
:100090009167010099670100A1670100A96701004C
:1000A000B1670100B9670100C1670100C9670100BC
:1000B000D1670100D9670100E1670100A96700006D
:1000C000E967010009670000F1670100F9670100B5
:1000D0000168010009680100116801001968010048
:1000E00021680100296801003168010039680100B8
:1000F0004168010049680100516801005968010028
:100100005D710000616801006968010071680100AB
:100110007968010081680100896801009168010027
:1001200099680100A1680100A9680100B9DA00001E
:10013000CDDA0000E1DA0000F5DA000009DB0000AA
:10014000B1680100B9680100C1680100C968010017
:10015000D1680100D9680100E1680100E968010087
:10016000F1680100F9680100A0F60100000000201C
:10017000B8000000A0F601000080FF1F0000000092
:10018000B8000020A47000000080FF1F00000000E5
:1001900010B572B611F0B0FF0D4B07E003F10C047F
:1001A0009A685968186800F019F82346094A93427A
:1001B000F4D306E01C46596854F8080B00F01DF80B
:1001C0002346054A9342F5D362B61DF0C0FEFEE712
:1001D00068010000800100009001000000239342AC
:1001E0000AD210B450F8044B41F8044B0433934244
:1001F000F8D35DF8044B70477047002303E00022FA
:1002000040F8042B04338B42F9D37047FEE7FEE736
:10021000FEE7FEE7FEE7FEE7FEE7FEE7FEE7FEE7B6
:10022000FFFFFFFFFFFFFFFFFFFFFFFFFFFFFFFFDE
:10023000FFFFFFFFFFFFFFFFFFFFFFFFFFFFFFFFCE
:10024000FFFFFFFFFFFFFFFFFFFFFFFFFFFFFFFFBE
:10025000FFFFFFFFFFFFFFFFFFFFFFFFFFFFFFFFAE
:10026000FFFFFFFFFFFFFFFFFFFFFFFFFFFFFFFF9E
:10027000FFFFFFFFFFFFFFFFFFFFFFFFFFFFFFFF8E
:10028000FFFFFFFFFFFFFFFFFFFFFFFFFFFFFFFF7E
:10029000FFFFFFFFFFFFFFFFFFFFFFFFFFFFFFFF6E
:1002A000FFFFFFFFFFFFFFFFFFFFFFFFFFFFFFFF5E
:1002B000FFFFFFFFFFFFFFFFFFFFFFFFFFFFFFFF4E
:1002C000FFFFFFFFFFFFFFFFFFFFFFFFFFFFFFFF3E
:1002D000FFFFFFFFFFFFFFFFFFFFFFFFFFFFFFFF2E
:1002E000FFFFFFFFFFFFFFFFFFFFFFFFFFFFFFFF1E
:1002F000FFFFFFFFFFFFFFFFFFFFFFFFFFFFFFFF0E
:10030000FFFFFFFFFFFFFFFFFFFFFFFFFFFFFFFFFD
:10031000FFFFFFFFFFFFFFFFFFFFFFFFFFFFFFFFED
:10032000FFFFFFFFFFFFFFFFFFFFFFFFFFFFFFFFDD
:10033000FFFFFFFFFFFFFFFFFFFFFFFFFFFFFFFFCD
:10034000FFFFFFFFFFFFFFFFFFFFFFFFFFFFFFFFBD
:10035000FFFFFFFFFFFFFFFFFFFFFFFFFFFFFFFFAD
:10036000FFFFFFFFFFFFFFFFFFFFFFFFFFFFFFFF9D
:10037000FFFFFFFFFFFFFFFFFFFFFFFFFFFFFFFF8D
:10038000FFFFFFFFFFFFFFFFFFFFFFFFFFFFFFFF7D
:10039000FFFFFFFFFFFFFFFFFFFFFFFFFFFFFFFF6D
:1003A000FFFFFFFFFFFFFFFFFFFFFFFFFFFFFFFF5D
:1003B000FFFFFFFFFFFFFFFFFFFFFFFFFFFFFFFF4D
:1003C000FFFFFFFFFFFFFFFFFFFFFFFFFFFFFFFF3D
:1003D000FFFFFFFFFFFFFFFFFFFFFFFFFFFFFFFF2D
:1003E000FFFFFFFFFFFFFFFFFFFFFFFFFFFFFFFF1D
:1003F000FFFFFFFFFFFFFFFFFFFFFFFFFFFFFFFF0D
:10040000FFFFFFFFFFFFFFFFFFFFFFFFFEFFFFFFFD
:10041000074B19680868B0E8F04F80F30988BFF30C
:100420006F8F4FF0000080F311887047AFF30080AA
:100430004C6F002000BF00BFFFFFFFFFFFFFFFFF6B
:10044000EFF30980BFF36F8F154B1A681EF0100F82
:1004500008BF20ED108A20E9F04F10602DE9090057
:100460004FF0200080F31188BFF34F8FBFF36F8FE1
:1004700013F012FC4FF0000080F3118809BC1968DA
:100480000868B0E8F04F1EF0100F08BFB0EC108AFB
:1004900080F30988BFF36F8F704700BFAFF3008010
:1004A0004C6F002000BF00BFB0B58CB000AF7860CB
:1004B0004FF00003BB624FF07E53BB614FF000036F
:1004C000FB614FF000033B624FF000037B627B68EF
:1004D0001B685B7887F82F307B681B7CDBB2013BA5
:1004E000082B00F2998001A252F823F011050000B8
:1004F0003105000051050000710500008D05000068
:10050000A9050000C5050000E1050000FD0500008B
:100510004FF00003BB604FF07E53FB604FF00003D1
:100520003B614FF000037B61A84BA94A1A6080E051
:100530004FF00003BB604FF00003FB604FF07E53B1
:100540003B614FF000037B61A04BA14A1A6070E051
:100550004FF00003BB604FF00003FB604FF000035F
:100560003B614FF07E537B61984B994A1A6060E083
:10057000984BBB60984BFB604FF000033B614FF022
:1005800000037B61914B954A1A6052E0914BBB602E
:10059000904BFB604FF000033B614FF000037B6129
:1005A0008A4B8E4A1A6044E08A4BBB604FF00003CE
:1005B000FB60894B3B614FF000037B61834B874AB3
:1005C0001A6036E0834BBB604FF00003FB60814B49
:1005D0003B614FF000037B617C4B804A1A6028E04E
:1005E0007C4BBB604FF00003FB604FF000033B61AE
:1005F000794B7B61754B794A1A601AE0754BBB6089
:100600004FF00003FB604FF000033B61714B7B61D7
:100610006E4B724A1A600CE04FF07E53BB604FF095
:100620000003FB604FF000033B614FF000037B6170
:1006300000BF97F82F30052B00F28E8001A252F8F0
:1006400023F000BF5D06000087060000B106000031
:10065000DB060000050700002F0700007B6803F59C
:10066000805307F1180403F644330FCB84E80F00DE
:100670007B6803F5DA53043307F108021146184684
:1006800019F08AFD75E07B6803F5805307F11804C3
:1006900003F6E8330FCB84E80F007B6803F5DF53E4
:1006A000083307F108021146184619F075FD60E09D
:1006B0007B6803F5805307F1180403F68C430FCBD6
:1006C00084E80F007B6803F5E4530C3307F108025C
:1006D0001146184619F060FD4BE07B6803F5805326
:1006E00007F1180403F6F8430FCB84E80F007B688A
:1006F00003F5E753183307F108021146184619F0BD
:100700004BFD36E07B6803F5805307F1180403F6D0
:10071000A4530FCB84E80F007B6803F5ED5304333B
:1007200007F108021146184619F036FD21E07B68F2
:1007300003F5805307F1180403F688730FCB84E8A0
:100740000F007B6803F5FC53083307F108021146DC
:10075000184619F021FD0CE04FF07E53BB614FF0BD
:100760000003FB614FF000033B624FF000037B622C
:1007700000BF1B4B1B889BB2002B37D17B681B7CB7
:10078000DBB2002B00F0A880154B01221A807B6899
:1007900000221A74134B00221A80BB69124A13609C
:1007A000D7ED077AF1EE677A0F4BC3ED017AD7EDFB
:1007B000087AF1EE677A0C4BC3ED027AD7ED097A2D
:1007C000F1EE677A084BC3ED037A85E0D02800206C
:1007D0000000B442F304353FF30435BF0000344257
:1007E0004E710020507100201C000020444B1B88DB
:1007F0009BB201339AB2424B1A8007F11803414968
:10080000184619F0C9FCBB69184615F04FFF02469F
:100810000B4643EC102B1DF0C9FB51EC100B32A31F
:10082000D3E9002315F09CFC02460B4610461946FE
:1008300015F010FF0346BB62BB6A184615F036FF81
:1008400002460B4643EC102B1DF0CBFBB0EE407A7A
:10085000F0EE607A9FED261BB0EE470AF0EE670AD5
:1008600014F0F0FA53EC102B1046194615F0F2FE76
:100870000346BB6297ED0A7A234BD3ED007AB4EEC0
:10088000E77AF1EE10FA02D5204B02221A80BB6AF9
:10089000184615F00BFF04460D461B4B1B68184607
:1008A00015F004FF14A3D3E9002315F059FC024608
:1008B0000B46204629461DF09CFE0346002B02D025
:1008C000124B00221A800E4B1B889BB2642B05D959
:1008D0000E4B00221A8001E000BF00E000BF00BF05
:1008E0003037BD46B0BD00BF00000020DCA55C4035
:1008F00000000000008066409A9999999999C93F33
:10090000507100201C000020D02800204E710020D3
:1009100080B586B000AFF860B9607A60FB68864A3F
:10092000C3F8C421FB68854AC3F8D821FB68D3ED1E
:10093000717A9FED837A27EE877AF0EE006AC7EE30
:10094000267AFB68C3ED727AFB6893ED727AFB68D6
:10095000D3ED727A67EE277AFB68C3ED737AFB6892
:1009600093ED727AFB68D3ED767A67EE277AFB68AF
:10097000C3ED757AFB68D3F8CC31184615F096FEB6
:1009800069A3D3E9002315F0EBFB02460B461046A2
:1009900019464FF000026B4B15F060FC02460B4607
:1009A0001046194615F056FE0246FB68C3F8D021E2
:1009B0009FED5F0B1DF015FB53EC102B10461946F5
:1009C00015F048FE034600EE103A1DF0E5FAB0EED1
:1009D000407ADFED5D6AC7EE267AFB68C3ED777A71
:1009E0000023FB7419E097F91330FA6864339B0015
:1009F000134404334FF000021A6097F91330FA6879
:100A00006A339B00134404334FF000021A6097F9D5
:100A10001330DBB20133DBB2FB7497F91330022BD6
:100A2000E1DD4A4B7B617B691A1D7A611B68484A8C
:100A3000934219D10023FB7411E07B691A1D7A617E
:100A400097F913001A68F96800F168039B000B44DA
:100A50001A6097F91330DBB20133DBB2FB7497F9FC
:100A60001330022BE9DD42E00023FB743BE097F9F1
:100A700013307A6832339B001344D3ED007AB9EE19
:100A80000C7AF4EEC77AF1EE10FA1DDB97F9133009
:100A90007A6832339B001344D3ED007AB1EE0C7ABE
:100AA000F4EEC77AF1EE10FA0ED897F9132097F901
:100AB00013307968323292000A441268F968683358
:100AC0009B000B441A6008E097F91330FA6868330A
:100AD0009B0013444FF000021A6097F91330DBB209
:100AE0000133DBB2FB7497F91330022BBFDDFB68D7
:100AF00003F11402BB68D4331946104609F04EFCCA
:100B0000FB6803F11402FB6838331946104609F0FC
:100B100021FFFB68002283F8E02100BF1837BD46A3
:100B200080BD00BFAFF3008000000AD7A30069407A
:100B300000000040E17A943F0AD7A33C0D74DA3BF1
:100B400035FA8E3C000008400000484264F007007F
:100B500078563412FFFFFFFFF0B58DB004AFF86098
:100B6000B9607A603B60FB68AF4AC3F8E823FB6872
:100B7000D3F8E833184615F099FDA5A3D3E900236F
:100B800015F0EEFA02460B461046194615F062FDC6
:100B90000246FB68C3F8EC23FB6803F58063A34AB5
:100BA0001A60FB68D3EDFA7A9FEDA17A27EE877A77
:100BB000F0EE006AC7EE267AFB68C3EDFC7AFB68AC
:100BC00093EDFC7AFB68D3EDFC7A67EE277AFB683D
:100BD000C3EDFD7AFB6893EDFC7AFB6803F5806357
:100BE000D3ED007A67EE277AFB68C3EDFF7AFB68E6
:100BF000D3F8F433184615F059FD87A3D3E9002341
:100C000015F0AEFA02460B46104619464FF00002A8
:100C1000884B15F023FB02460B461046194615F08B
:100C200019FD0246FB68C3F8F8239FED7D0B1DF00C
:100C3000D8F953EC102B1046194615F00BFD03465E
:100C400000EE103A1DF0A8F9B0EE407ADFED7A6AB6
:100C5000C7EE267AFB6803F20443C3ED007A002353
:100C6000FB7634E097F91B30FA68E4339B001344B9
:100C700004334FF000021A6097F91B30FA68E8332A
:100C80009B0013444FF000021A6097F91B30FA687A
:100C9000EE339B0013444FF000021A6097F91B30AB
:100CA000FA68F4339B0013444FF000021A6097F97E
:100CB0001B30FA68F6339B00134404334FF00002F4
:100CC0001A6097F91B30DBB20133DBB2FB7697F980
:100CD0001B30022BC6DD594BFB61FB691A1DFA6103
:100CE0001B68574A93421AD10023FB7612E0FB6936
:100CF0001A1DFA6197F91B001A68F96800F1EA03F6
:100D00009B000B4404331A6097F91B30DBB20133AC
:100D1000DBB2FB7697F91B30022BE8DD44E00023C1
:100D2000FB763DE097F91B303A6832339B00134461
:100D3000D3ED007AB9EE0C7AF4EEC77AF1EE10FA40
:100D40001EDB97F91B303A6832339B001344D3ED16
:100D5000007AB1EE0C7AF4EEC77AF1EE10FA0FD801
:100D600097F91B2097F91B303968323292000A44F8
:100D70001268F968EA339B000B4404331A6009E0F7
:100D800097F91B30FA68EA339B00134404334FF0A1
:100D900000021A6097F91B30DBB20133DBB2FB763D
:100DA00097F91B30022BBDDDFB68002283F8082475
:100DB000FB6803F11400FB6803F56274FB6803F53C
:100DC0006375FB6803F564767B687433BA68D43264
:100DD00007F11401039107F11401029101920093AC
:100DE00033462A46214618F016FDFB6803F114022B
:100DF000FB6838331946104609F0ACFDFB68002249
:100E000083F8092400BF2437BD46F0BDAFF300804E
:100E100005A3923A019D234000000AD7A300694030
:100E200000000040E17A943F0AD7A33C0D74DA3BFE
:100E300035FA8E3C000008400000484264F007008C
:100E400078563412FFFFFFFFB0B5AAB002AFF860CA
:100E5000B9607A60FB6893F9E031002B06D07A68BC
:100E6000B968F868FFF754FD01F048B8002387F827
:100E700093302AE097F993307A686C335B0013441F
:100E8000B3F9023007EE903AB8EEE77A7B68D3ED1B
:100E9000357A27EE277A97F99330FA6868339B0002
:100EA0001344D3ED007A97F9933077EE677AFA68B6
:100EB00014339B0013440433C3ED007A97F9933045
:100EC000DBB20133DBB287F8933097F99330022B12
:100ED000D0DDFB6807F13C0438330FCB84E80F000A
:100EE0007B689B78002B68D0FB68D3ED716A7B68C8
:100EF0009B7807EE903AB8EE677AC6EE877AC7ED30
:100F0000237A002387F8923050E0002387F893304B
:100F10002FE097F9922097F99300796813465B00C8
:100F2000134403445B000B44B3F9063007EE903AD8
:100F3000B8EEE77A7B68D3ED357A27EE277A97F912
:100F40009330FA6868339B001344D3ED007A97F925
:100F5000933077EE677A9B0007F1A0021344243B9D
:100F6000C3ED007A97F99330DBB20133DBB287F837
:100F7000933097F99330022BCBDD07F17C0207F118
:100F80002C0397ED230A1146184609F0CBFB07F115
:100F90002C0207F13C031146184619F0FDF897F9A9
:100FA0009230DBB20133DBB287F8923097F992309E
:100FB0007A6892789342A8DB15E0FB6803F154024B
:100FC000FB68D3ED717A07F12C03B0EE670A114686
:100FD000184609F0A7FB07F12C0207F13C03114664
:100FE000184619F0D9F8BB6893ED357ABB68D3ED94
:100FF000357A27EE277ABB68D3ED366ABB68D3ED26
:10100000367A66EEA77A37EE277ABB68D3ED376A71
:10101000BB68D3ED377A66EEA77A77EE277A17EEBC
:10102000900A15F043FB02460B4643EC102B1CF0D4
:10103000D8FF53EC102B1046194615F00BFB034656
:1010400000EE103A1CF0A8FF87ED220AD7ED227AB5
:10105000F5EE407AF1EE10FA23D0F7EE006A97ED44
:10106000227AC6EE877AC7ED237ABB6893ED357A8C
:10107000D7ED237A67EE277AC7ED1C7ABB6893ED2C
:10108000367AD7ED237A67EE277AC7ED1D7ABB68EB
:1010900093ED377AD7ED237A67EE277AC7ED1E7A7C
:1010A00008E04FF000033B674FF000037B674FF011
:1010B0007E53BB6797ED107AD7ED127A27EE277A29
:1010C000D7ED0F6AD7ED117A66EEA77A77EE677AD9
:1010D00077EEA77AC7ED1F7A97ED117AD7ED127ADE
:1010E00027EE277AD7ED0F6AD7ED107A66EEA77A4A
:1010F00077EE277A77EEA77AC7ED207A97ED0F7A09
:10110000D7ED0F7A27EE277AD7ED126AD7ED127A4C
:1011100066EEA77A77EE277A77EEA77AB7EE007AAF
:1011200077EEC77AC7ED217A07F17C0207F17001EB
:1011300007F12C03184609F075FE3A6BFB68C3F8FB
:1011400088217A6BFB68C3F88C21BA6BFB68C3F803
:101150009021002387F8933026E0002387F892300F
:1011600017E097F9932097F99200F96813465B000E
:1011700013445B00034418339B000B4404334FF0CB
:1011800000021A6097F99230DBB20133DBB287F8C4
:10119000923097F99230052BE3DD97F99330DBB26B
:1011A0000133DBB287F8933097F99330052BD4DD08
:1011B000FB6893ED6B7AFB68D3ED6B7A67EE277A69
:1011C000FB68C3ED2E7AFB6893ED6C7AFB68D3ED78
:1011D0006C7A67EE277AFB68C3ED357AFB6893ED8E
:1011E0006D7AFB68D3ED6D7A67EE277AFB68C3ED05
:1011F0003C7AFB6893ED657AFB68D3ED657A27EE60
:10120000277AFB68D3ED747A37EE277AFB68D3ED43
:10121000736AFB68D3ED2E7A66EEA77A77EE277AAB
:10122000FB68C3ED197AFB6893ED667AFB68D3ED32
:10123000667A27EE277AFB68D3ED747A37EE277A41
:10124000FB68D3ED736AFB68D3ED357A66EEA77A57
:1012500077EE277AFB68C3ED207AFB6893ED677A17
:10126000FB68D3ED677A27EE277AFB68D3ED747AB3
:1012700037EE277AFB68D3ED736AFB68D3ED3C7ACF
:1012800066EEA77A77EE277AFB68C3ED277AFB68CC
:1012900093ED2E7AFB68D3ED767A77EE277AFB68AA
:1012A000C3ED2E7AFB6893ED357AFB68D3ED767A41
:1012B00077EE277AFB68C3ED357AFB6893ED3C7ACD
:1012C000FB68D3ED767A77EE277AFB68C3ED3C7A3C
:1012D000FB6893ED657AFB68D3ED6B7A27EE277A8E
:1012E000FB68D3ED726AFB68D3ED2E7A66EEA77ABF
:1012F00077EE677AFB68C3ED2B7AFB68D3F8AC20F6
:10130000FB681A67FB6893ED667AFB68D3ED6C7A2D
:1013100027EE277AFB68D3ED726AFB68D3ED357A46
:1013200066EEA77A77EE677AFB68C3ED327AFB68E0
:10133000D3F8C820FB68C3F88C20FB6893ED677A6C
:10134000FB68D3ED6D7A27EE277AFB68D3ED726ADE
:10135000FB68D3ED3C7A66EEA77A77EE677AFB6896
:10136000C3ED397AFB68D3F8E420FB68C3F8A82002
:10137000D7ED227AB7EE007A77EEC77AC7ED237AF7
:10138000D7ED237AB0EE087A67EE877A97ED237A65
:1013900067EE277AC7ED277AD7F89C0015F086F913
:1013A000D5A3D3E900231DF024F90346002B02D076
:1013B000CF4BC7F89C30D7ED277A9FEDCE7A27EE3A
:1013C000877AFB68D3ED747A77EE277AFB68C3EDF2
:1013D000617A002387F89330DCE0002387F89230AD
:1013E000CCE097F9932097F99200F96813465B00D7
:1013F000134403444E339B000B4404334FF000026C
:101400001A60002387F89130ACE04FF00003C7F872
:10141000943097F9912097F992309A4203D14FF086
:101420007E53C7F8943097F9912097F9923003339F
:101430009A4206D1FB68D3ED727AF1EE677AC7ED76
:10144000257A97F9932097F99100F96813465B0084
:1014500013445B00034418339B000B440433D3ED67
:10146000007AF5EE407AF1EE10FA74D0D7ED257AD5
:10147000F5EE407AF1EE10FA6DD0D7ED257AB7EEA1
:10148000007AF4EE477AF1EE10FA30D197F9932012
:1014900097F99200F96813465B00134403444E33F6
:1014A0009B000B44043393ED007A97F9932097F94E
:1014B0009100F96813465B0013445B000344183342
:1014C0009B000B440433D3ED007A97F9932097F9EE
:1014D000920077EE277AF96813465B0013440344C1
:1014E0004E339B000B440433C3ED007A33E097F98D
:1014F000932097F99200F96813465B001344034464
:101500004E339B000B44043393ED007A97F99320FC
:1015100097F99100F96813465B0013445B0003449C
:1015200018339B000B440433D3ED006AD7ED257AC2
:1015300066EEA77A97F9932097F9920077EE277ACB
:10154000F96813465B00134403444E339B000B447D
:101550000433C3ED007A97F99130DBB20133DBB28B
:1015600087F8913097F99130052B7FF74EAF97F9B7
:101570009230DBB20133DBB287F8923097F99230C8
:10158000022B7FF72EAF97F99330DBB20133DBB23A
:1015900087F8933097F99330052B7FF71EAF002320
:1015A00087F89330FEE097F8933087F89230EDE0BB
:1015B00097F9932097F992309A4211D197F9932095
:1015C00097F99200FB68D3F8841113465B0013442B
:1015D00003449B0007F1A0021344543B19600FE041
:1015E00097F9932097F9921013465B0013440B442C
:1015F0009B0007F1A0021344543B4FF000021A6015
:10160000002387F89130B5E04FF00003C7F8983019
:1016100097F9912097F993309A4203D14FF07E5376
:10162000C7F8983097F9912097F9933003339A428D
:1016300006D1FB68D3ED727AF1EE677AC7ED267AB0
:10164000D7ED267AF5EE407AF1EE10FA00F08B80B5
:1016500097F9912097F99200F96813465B001344BB
:1016600003444E339B000B440433D3ED007AF5EE74
:10167000407AF1EE10FA76D0D7ED267AB7EE007AFE
:10168000F4EE477AF1EE10FA3AD197F9932097F9F0
:10169000921013465B0013440B449B0007F1A00219
:1016A0001344543B93ED007A97F9912097F99200F7
:1016B000F96813465B00134403444E339B000B440C
:1016C0000433D3ED007A97F9932097F9921077EECF
:1016D000277A13465B0013440B449B0007F1A002DA
:1016E0001344543BC3ED007A3DE000BFAFF30080EC
:1016F00052499D3AABAAAA3D613255302AA9533FBF
:1017000097F9932097F9921013465B0013440B440A
:101710009B0007F1A0021344543B93ED007A97F924
:10172000912097F99200F96813465B001344034433
:101730004E339B000B440433D3ED006AD7ED267A79
:1017400066EEA77A97F9932097F9921077EE277AA9
:1017500013465B0013440B449B0007F1A0021344A3
:10176000543BC3ED007A97F99130DBB20133DBB221
:1017700087F8913097F99130052B7FF745AF97F9AE
:101780009230DBB20133DBB287F8923097F99230B6
:10179000022B7FF70DAF97F99330DBB20133DBB249
:1017A00087F8933097F99330022B7FF7FCAE3B6DAF
:1017B000BB657B6D7B663B6EBB66002387F8933011
:1017C00017E097F9932097F9931007F14C0013460F
:1017D0005B0013449B00C2188B0007F1A0010B446F
:1017E00043F8842C97F99330DBB20133DBB287F8EE
:1017F000933097F99330022BE3DD07F1100407F1E2
:10180000140207F1180107F11C0007F12B030193E3
:1018100003230093234617F0CFFB97F92B30002BBF
:1018200040F0A880002387F893309DE0002387F8DC
:1018300092308DE097F9932097F99200F96813465A
:101840005B00134403443C339B000B4404334FF0D0
:1018500000021A60002387F891306EE097F9932018
:1018600097F99100F96813465B00134403444E3323
:101870009B000B440433D3ED007AF5EE407AF1EE91
:1018800010FA53D097F9912097F9921013465B0004
:1018900013440B449B0007F1A0021344543BD3EDC7
:1018A000007AF5EE407AF1EE10FA3FD097F99320E6
:1018B00097F99200F96813465B00134403443C33E4
:1018C0009B000B44043393ED007A97F9932097F92A
:1018D0009100F96813465B00134403444E339B00A8
:1018E0000B440433D3ED006A97F9912097F99210D5
:1018F00013465B0013440B449B0007F1A002134402
:10190000543BD3ED007A66EEA77A97F9932097F9C6
:10191000920077EE277AF96813465B00134403447C
:101920003C339B000B440433C3ED007A97F99130AC
:10193000DBB20133DBB287F8913097F99130022B9B
:101940008CDD97F99230DBB20133DBB287F892304D
:1019500097F99230022B7FF76DAF97F99330DBB296
:101960000133DBB287F8933097F99330052B7FF77B
:101970005DAF2DE0002387F8933025E0002387F842
:10198000923016E097F9932097F99200F968134680
:101990005B00134403443C339B000B4404334FF07F
:1019A00000021A6097F99230DBB20133DBB287F89C
:1019B000923097F99230022BE4DD97F99330DBB245
:1019C0000133DBB287F8933097F99330052BD5DDDF
:1019D000002387F8933044E197F99320F968134680
:1019E0005B0013449B000B44F433D3ED007AF5EE17
:1019F000407AF1EE10FA19D097F99320F96813465E
:101A00005B0013449B000B44F43393ED007AFB68B6
:101A1000D3ED627A97F9933067EE277AFA686433E8
:101A20009B0013440433C3ED007A09E097F9933027
:101A3000FA6864339B00134404334FF000021A60C9
:101A400097F99320F96813465B0013449B000B44FD
:101A5000F833D3ED007AF5EE407AF1EE10FA23D0A8
:101A600097F99330FA6864339B001344043393ED81
:101A7000007A97F99320F96813465B0013449B00A2
:101A80000B44F833D3ED006AFB68D3ED637A66EE5E
:101A9000A77A97F9933077EE277AFA6864339B0038
:101AA00013440433C3ED007A97F99320F968134681
:101AB0005B0013449B000B44FC33D3ED007AF5EE3E
:101AC000407AF1EE10FA23D097F99330FA68643334
:101AD0009B001344043393ED007A97F99320F9683F
:101AE00013465B0013449B000B44FC33D3ED006AA8
:101AF000FB68D3ED647A66EEA77A97F9933077EEB8
:101B0000277AFA6864339B0013440433C3ED007AE8
:101B100097F99330DA1CF96813465B0013449B0075
:101B20000B44F433D3ED007AF5EE407AF1EE10FA7F
:101B30001AD097F99330DA1CF96813465B00134406
:101B40009B000B44F43393ED007AFB68D3ED627A8B
:101B500097F9933067EE277AFA686A339B0013444B
:101B60000433C3ED007A09E097F99330FA686A33D9
:101B70009B00134404334FF000021A6097F993302E
:101B8000DA1CF96813465B0013449B000B44F833DE
:101B9000D3ED007AF5EE407AF1EE10FA24D097F901
:101BA0009330FA686A339B001344043393ED007A50
:101BB00097F99330DA1CF96813465B0013449B00D5
:101BC0000B44F833D3ED006AFB68D3ED637A66EE1D
:101BD000A77A97F9933077EE277AFA686A339B00F1
:101BE00013440433C3ED007A97F99330DA1CF96893
:101BF00013465B0013449B000B44FC33D3ED007A87
:101C0000F5EE407AF1EE10FA24D097F99330FA68A5
:101C10006A339B001344043393ED007A97F99330B1
:101C2000DA1CF96813465B0013449B000B44FC3339
:101C3000D3ED006AFB68D3ED647A66EEA77A97F974
:101C4000933077EE277AFA686A339B0013440433A3
:101C5000C3ED007A97F99330DBB20133DBB287F83A
:101C6000933097F99330022B7FF7B6AEFB68D3ED34
:101C7000657AF1EE677AC7ED0C7AFB68D3ED667A88
:101C8000F1EE677AC7ED0D7AFB68D3ED677AF1EE76
:101C9000677AC7ED0E7A97ED0C7AD7ED0C7A27EEBE
:101CA000277AD7ED0D6AD7ED0D7A66EEA77A37EE73
:101CB000277AD7ED0E6AD7ED0E7A66EEA77A77EE21
:101CC000277AC7ED237AD7ED237AB7EE007AF4EEC0
:101CD000C77AF1EE10FA14D8B7EE007AD7ED237A6E
:101CE00077EE677AB0EE670A1CF03BF9F0EE407AC7
:101CF000B0EE670A1CF050F9F0EE407AC7ED0B7AAF
:101D000026E097ED230A1CF047F9B0EE407AF7EE93
:101D1000006AC6EE877AC7ED237A4FF00003FB62B4
:101D200097ED0C7AD7ED237A67EE277AC7ED0C7A18
:101D300097ED0D7AD7ED237A67EE277AC7ED0D7A06
:101D400097ED0E7AD7ED237A67EE277AC7ED0E7AF4
:101D5000FB68383307F12C0207F13C01184618F0F4
:101D60006BF9FB683833184608F0B2FFFB6803F1E3
:101D70001402FB6838331946104617F093FFFB68CE
:101D800003F13802FB6848331946104608F0FCFEA0
:101D9000002387F8933071E097F99330FA686A333B
:101DA0009B001344043393ED007AFB68D3ED777AFC
:101DB000B4EEE77AF1EE10FA15DD97F99330FA6890
:101DC00068339B00134493ED007AFB68D3ED777A78
:101DD00097F9933077EE677AFA6868339B0013447B
:101DE000C3ED007A43E097F99330FA686A339B00B9
:101DF0001344043393ED007AFB68D3ED777AF1EE68
:101E0000677AB4EEE77AF1EE10FA15D597F99330C8
:101E1000FA6868339B00134493ED007AFB68D3EDB6
:101E2000777A97F9933077EE277AFA6868339B00D0
:101E30001344C3ED007A1AE097F99330FA686833D7
:101E40009B00134493ED007A97F99330FA686A3354
:101E50009B0013440433D3ED007A97F9933077EE67
:101E6000677AFA6868339B001344C3ED007A97F9E8
:101E70009330DBB20133DBB287F8933097F99330BC
:101E8000022B89DDFB6803F5DC70FB6803F11401AC
:101E9000BB6803F1D402012317F0FEFAFB68D3ED0F
:101EA0006E7AF1EE677AFB68C3ED6E7AFB68D3ED6C
:101EB0006F7AF1EE677AFB68C3ED6F7AFB68D3ED5A
:101EC000707AB7EE007A77EEC77AF1EE677AFB6840
:101ED000C3ED707AFB6803F11400F968FB681C1D00
:101EE000FB6803F10805FB680C33FA6810320192B5
:101EF00000932B46224608F047FB00BFA037BD46A3
:101F0000B0BD00BFFFFFFFFFF0B5FBB004AF07F5AA
:101F1000EC74A4F5E674206007F5EC70A0F5E870A9
:101F2000016007F5EC71A1F5EA710A6007F5EC7242
:101F3000A2F5EC72136007F5EC73A3F5E6731B686A
:101F400093F90934002B1AD007F5EC73A3F5EC7361
:101F500007F5EC72A2F5EA7207F5EC71A1F5E871EC
:101F600007F5EC70A0F5E670D7F8F04100941B6817
:101F7000126809680068FEF7EFFD01F00BBF00234F
:101F800087F8C7313BE097F9C73107F5EC72A2F546
:101F9000EC7212686C335B001344B3F9023007EE45
:101FA000903AB8EEE77A07F5EC73A3F5EC731B688B
:101FB000D3ED357A27EE277A97F9C73107F5EC721A
:101FC000A2F5E6721268EA339B0013440433D3EDA2
:101FD000007A97F9C73177EE677A07F5EC72A2F5C8
:101FE000E672126814339B0013440433C3ED007A85
:101FF00097F9C731DBB20133DBB287F8C73197F904
:10200000C731022BBFDD07F5EC73A3F5B07207F5FE
:10201000EC73A3F5E6731B68144638330FCB84E8E2
:102020000F0007F5EC73A3F5EC731B689B78002B8E
:1020300000F0838007F5EC73A3F5E6731B68D3ED1E
:10204000FA6A07F5EC73A3F5EC731B689B7807EE4F
:10205000903AB8EE677AC6EE877AC7ED707A0023B9
:1020600087F8C6315EE0002387F8C7313DE097F975
:10207000C62197F9C70107F5EC73A3F5EC7319684E
:1020800013465B00134403445B000B44B3F9063072
:1020900007EE903AB8EEE77A07F5EC73A3F5EC7328
:1020A0001B68D3ED357A27EE277A97F9C73107F504
:1020B000EC72A2F5E6721268EA339B001344043313
:1020C000D3ED007A97F9C73177EE677A07F5EC72AE
:1020D000A2F5A8729B001344C3ED007A97F9C731AB
:1020E000DBB20133DBB287F8C73197F9C731022B76
:1020F000BDDD07F1880207F1580397ED700A11461C
:10210000184608F00FFB07F1580207F17803114653
:10211000184618F041F897F9C631DBB20133DBB24B
:1021200087F8C63197F9C63107F5EC72A2F5EC7263
:1021300012689278934296DB1DE007F5EC73A3F5E5
:10214000E6731B6803F1540207F5EC73A3F5E6731D
:102150001B68D3EDFA7A07F15803B0EE670A11460F
:10216000184608F0DFFA07F1580207F17803114624
:10217000184618F011F807F1780207F58673114632
:10218000184617F08FFD07F5EC73A3F5EA731B688B
:10219000743307F5EC72A2F5E8721268D43207F1D5
:1021A0004C0607F1500507F1540407F1E80007F168
:1021B0004801039107F144010291019200933346D3
:1021C0002A46214617F027FB07F1680207F1E803CA
:1021D0001146184608F0BEFB07F5EC73A3F5C8736B
:1021E000D3ED007AB7EE007A77EEC77AC7ED707A52
:1021F000D7ED707AB0EE087A67EE877A97ED707A4D
:1022000067EE277AC7ED757AD7F8D40114F04EFA45
:10221000E3A3D3E900231CF0ECF90346002B02D022
:10222000DD4BC7F8D43107F5EC73A3F5CA7393ED12
:10223000007AD7F8F031D3ED0C7A77EE677AC7EDF4
:10224000707AD7ED707AB0EE087A67EE877A97EDFC
:10225000707A67EE277AC7ED747AD7ED747AB1EEAB
:10226000047AF4EEC77AF1EE10FA02D5CB4BC7F838
:10227000D031D7F8F031DB6B002B59D007F5EC7378
:10228000A3F5E6731B6893F90834002B50D107F5CA
:10229000EC73A3F5E6731B6807F5EC72A2F5B87250
:1022A00003F1380413460FCB84E80F0007F5EC73F5
:1022B000A3F5B07207F5EC73A3F5E6731B6814463B
:1022C00038330FCB84E80F0007F1E80207F5867377
:1022D0001146184615F0F5FC07F5EC73A3F5C2732B
:1022E0001A6807F5EC73A3F5E6731B68C3F8882337
:1022F00007F5EC73A3F5C4731A6807F5EC73A3F53F
:10230000E6731B68C3F88C2307F5EC73A3F5C6735B
:102310001A6807F5EC73A3F5E6731B68C3F89023FE
:1023200007F5EC73A3F5E6731B68012283F8082414
:10233000D7F8F02007F5EC73A3F5A8731A60D7F867
:10234000FC2007F5EC73A3F5A8735A60D7F80821B1
:1023500007F5EC73A3F5A8739A60D7F81431C7F8A2
:10236000DC30D7F82031C7F8E030D7F82C31C7F887
:10237000E43007F1DC0207F1880107F15803184641
:1023800008F050FD07F5EC73A3F5C0735A6807F524
:10239000EC73A3F5E6731B68C3F8582307F5EC73D9
:1023A000A3F5C0739A6807F5EC73A3F5E6731B6891
:1023B000C3F85C2307F5EC73A3F5C073DA6807F57F
:1023C000EC73A3F5E6731B68C3F8602397ED3A7AC4
:1023D00007F5EC73A3F5C673D3ED007A27EE277AE1
:1023E000D7ED3C6A07F5EC73A3F5C473D3ED007A1F
:1023F00066EEA77A77EE277A07F5EC73A3F5A87354
:10240000C3ED007A97ED3D7A07F5EC73A3F5C6733B
:10241000D3ED007A27EE277AD7ED3F6A07F5EC7304
:10242000A3F5C473D3ED007A66EEA77A77EE277A28
:1024300007F5EC73A3F5A873C3ED017A97ED407A25
:1024400007F5EC73A3F5C673D3ED007A27EE277A70
:10245000D7ED426A07F5EC73A3F5C473D3ED007AA8
:1024600066EEA77A77EE277A07F5EC73A3F5A873E3
:10247000C3ED027A97ED437A07F5EC73A3F5E673A3
:102480001B68D3EDE47A27EE277AD7ED456A07F586
:10249000EC73A3F5E6731B68D3EDE37A66EEA77AD7
:1024A00077EE277A07F5EC73A3F58473C3ED007A12
:1024B00097ED467A07F5EC73A3F5E6731B68D3ED49
:1024C000E47A27EE277AD7ED486A07F5EC73A3F58F
:1024D000E6731B68D3EDE37A66EEA77A77EE277A88
:1024E00007F5EC73A3F58473C3ED017A97ED497A90
:1024F00007F5EC73A3F5E6731B68D3EDE47A27EEDA
:10250000277AD7ED4B6A07F5EC73A3F5E6731B68E2
:10251000D3EDE37A66EEA77A77EE277A07F5EC73C8
:10252000A3F58473C3ED027A07F1D00207F18801A5
:1025300007F15803184608F075FC07F5EC73A3F58E
:10254000C0735A6807F5EC73A3F5E6731B68C3F80C
:10255000642307F5EC73A3F5C0739A6807F5EC7371
:10256000A3F5E6731B68C3F8682307F5EC73A3F5BE
:10257000C073DA6807F5EC73A3F5E6731B68C3F85C
:102580006C23002387F8C73134E097F8C73187F808
:10259000C63124E0AFF3008052499D3A0000A040CC
:1025A000613255302AA9533F97F9C72197F9C601DF
:1025B00007F5EC73A3F5E67319681346DB001344C3
:1025C000034418339B000B4404334FF000021A609D
:1025D00097F9C631DBB20133DBB287F8C63197F920
:1025E000C631082BE0DD97F9C731DBB20133DBB22E
:1025F00087F8C73197F9C731082BC6DD07F5EC73AB
:10260000A3F5E6731B6893EDEE7A07F5EC73A3F57B
:10261000E6731B68D3EDEE7A67EE277A07F5EC7365
:10262000A3F5E6731B68C3ED557A07F5EC73A3F5C4
:10263000E6731B6893EDEF7A07F5EC73A3F5E67389
:102640001B68D3EDEF7A67EE277A07F5EC73A3F5F5
:10265000E6731B68C3ED5F7A07F5EC73A3F5E673C9
:102660001B6893EDF07A07F5EC73A3F5E6731B682E
:10267000D3EDF07A67EE277A07F5EC73A3F5E673EE
:102680001B68C3ED697A07F5EC73A3F5E6731B6865
:1026900093EDFD7A07F5EC73A3F5E6731B68D3EDB4
:1026A000557A27EE277A07F5EC73A3F5E6731B68D6
:1026B000D3EDFE7A77EE277A07F5EC73A3F5A873CE
:1026C000C3ED007A07F5EC73A3F5E6731B6893ED91
:1026D000FD7A07F5EC73A3F5E6731B68D3ED5F7A1B
:1026E00027EE277A07F5EC73A3F5E6731B68D3EDA5
:1026F000FE7A77EE277A07F5EC73A3F5A873C3ED9E
:10270000017A07F5EC73A3F5E6731B6893EDFD7A88
:1027100007F5EC73A3F5E6731B68D3ED697A27EE32
:10272000277A07F5EC73A3F5E6731B68D3EDFE7A01
:1027300077EE277A07F5EC73A3F5A873C3ED027A59
:1027400007F5EC73A3F5E6731B6893EDE57A07F5DF
:10275000EC73A3F5E6731B68D3EDE57A27EE277AD1
:1027600007F5EC73A3F5A873D3ED007A77EE277A1B
:1027700007F5EC73A3F5E6731B68C3ED197A07F54B
:10278000EC73A3F5E6731B6893EDE67A07F5EC733B
:10279000A3F5E6731B68D3EDE67A27EE277A07F5F3
:1027A000EC73A3F5A873D3ED017A77EE277A07F5DA
:1027B000EC73A3F5E6731B68C3ED237A07F5EC739E
:1027C000A3F5E6731B6893EDE77A07F5EC73A3F5C1
:1027D000E6731B68D3EDE77A27EE277A07F5EC73EB
:1027E000A3F5A873D3ED027A77EE277A07F5EC7399
:1027F000A3F5E6731B68C3ED2D7A07F5EC73A3F51B
:10280000E6731B6893EDE87A07F5EC73A3F5E673BE
:102810001B68D3EDE87A27EE277A07F5EC73A3F56A
:10282000A873D3ED007A77EE277A07F5EC73A3F55A
:10283000E6731B68C3ED377A07F5EC73A3F5E6730F
:102840001B6893EDE97A07F5EC73A3F5E6731B6853
:10285000D3EDE97A27EE277A07F5EC73A3F5A87391
:10286000D3ED017A77EE277A07F5EC73A3F5E673DB
:102870001B68C3ED417A07F5EC73A3F5E6731B689B
:1028800093EDEA7A07F5EC73A3F5E6731B68D3EDD5
:10289000EA7A27EE277A07F5EC73A3F5A873D3ED50
:1028A000027A77EE277A07F5EC73A3F5E6731B68D7
:1028B000C3ED4B7A07F5EC73A3F5E6731B6893ED54
:1028C000557A07F5EC73A3F5E6731B6803F580638F
:1028D000D3ED007A77EE277A07F5EC73A3F5E6736C
:1028E0001B68C3ED557A07F5EC73A3F5E6731B6817
:1028F00093ED5F7A07F5EC73A3F5E6731B6803F5B8
:102900008063D3ED007A77EE277A07F5EC73A3F5B1
:10291000E6731B68C3ED5F7A07F5EC73A3F5E67306
:102920001B6893ED697A07F5EC73A3F5E6731B68F2
:1029300003F58063D3ED007A77EE277A07F5EC7321
:10294000A3F5E6731B68C3ED697A07F5EC73A3F58D
:10295000E6731B6893EDFC7A07F5EC73A3F5E67359
:102960001B68D3ED557A67EE277A07F5EC73A3F56C
:10297000A873C3ED007A07F5EC73A3F5E6731B6843
:1029800093EDFC7A07F5EC73A3F5E6731B68D3EDC2
:102990005F7A67EE277A07F5EC73A3F5A873C3EDAA
:1029A000017A07F5EC73A3F5E6731B6893EDFC7AE7
:1029B00007F5EC73A3F5E6731B68D3ED697A67EE50
:1029C000277A07F5EC73A3F5A873C3ED027A07F530
:1029D000EC73A3F5E6731B6893EDE57A07F5EC73EA
:1029E000A3F5E6731B68D3EDEE7A27EE277A07F599
:1029F000EC73A3F5A873D3ED007A77EE677A07F549
:102A0000EC73A3F5E6731B68C3ED1F7A07F5EC734F
:102A1000A3F5E6731B6893EDE67A07F5EC73A3F56F
:102A2000E6731B68D3EDEF7A27EE277A07F5EC7390
:102A3000A3F5A873D3ED017A77EE677A07F5EC7307
:102A4000A3F5E6731B68C3ED297A07F5EC73A3F5CC
:102A5000E6731B6893EDE77A07F5EC73A3F5E6736D
:102A60001B68D3EDF07A27EE277A07F5EC73A3F510
:102A7000A873D3ED027A77EE677A07F5EC73A3F5C6
:102A8000E6731B68C3ED337A07F5EC73A3F5E673C1
:102A90001B6893EDE87A07F5EC73A3F5E6731B6802
:102AA000D3EDEE7A27EE277A07F5EC73A3F5A8733A
:102AB000D3ED007A77EE677A07F5EC73A3F5E6734A
:102AC0001B68C3ED3A7A07F5EC73A3F5E6731B6850
:102AD00093EDE97A07F5EC73A3F5E6731B68D3ED84
:102AE000EF7A27EE277A07F5EC73A3F5A873D3EDF9
:102AF000017A77EE677A07F5EC73A3F5E6731B6846
:102B0000C3ED447A07F5EC73A3F5E6731B6893ED08
:102B1000EA7A07F5EC73A3F5E6731B68D3EDF07A58
:102B200027EE277A07F5EC73A3F5A873D3ED027AA5
:102B300077EE677A07F5EC73A3F5E6731B68C3EDD0
:102B40004E7A012387F8C7313BE0002387F8C6316E
:102B50002AE097F9C61197F9C75197F9C72197F954
:102B6000C64107F5EC73A3F5E67318680B46DB0066
:102B70000B442B4418339B0003440433196807F5B6
:102B8000EC73A3F5E67318681346DB001344234483
:102B900018339B0003440433196097F9C631DBB244
:102BA0000133DBB287F8C63197F9C62197F9C731EF
:102BB0009A42CEDB97F9C731DBB20133DBB287F83B
:102BC000C73197F9C731082BBFDDD7ED757A9FED77
:102BD000CF7A27EE877A07F5EC73A3F5E6731B68C7
:102BE000D3EDFE7A77EE277A07F5EC73A3F5E6735B
:102BF0001B68C3EDDE7A07F5EC73A3F5E6731B687B
:102C0000D3F8782307F5EC73A3F5E6731B68C3F8D4
:102C1000742307F5EC73A3F5E6731B68D3F87423EC
:102C200007F5EC73A3F5E6731B68C3F87023D7EDC3
:102C3000747A9FEDB67A67EE876AD7F8F031D3EDF4
:102C40000D7A86EEA77A07F5EC73A3F5E6731B6899
:102C5000D3EDFE7A77EE277A07F5EC73A3F5E673EA
:102C60001B68C3EDE17A07F5EC73A3F5E6731B6807
:102C7000D3F8842307F5EC73A3F5E6731B68C3F858
:102C8000802307F5EC73A3F5E6731B68D3F8802364
:102C900007F5EC73A3F5E6731B68C3F87C230023E8
:102CA00087F8C73124E1002387F8C63114E197F98A
:102CB000C72197F9C60107F5EC73A3F5E673196808
:102CC00013465B0013445B000344A0339B000B449A
:102CD0004FF000021A60002387F8C531F0E04FF092
:102CE0000003C7F8C83197F9C631022B1CDC97F9ED
:102CF000C52197F9C6319A4203D14FF07E53C7F8E8
:102D0000C83197F9C52197F9C63106339A422BD1BC
:102D100007F5EC73A3F5E6731B68D3EDFC7AF1EECF
:102D2000677AC7ED727A1FE097F9C631052B1BDC75
:102D300097F9C52197F9C6319A4203D14FF07E53D6
:102D4000C7F8C83197F9C52197F9C63103339A42BC
:102D50000AD107F5EC73A3F5E6731B68D3EDFC7A93
:102D6000F1EE677AC7ED727A97F9C72197F9C50135
:102D700007F5EC73A3F5E67319681346DB001344FB
:102D8000034418339B000B440433D3ED007AF5EE73
:102D9000407AF1EE10FA00F08C80D7ED727AF5EE01
:102DA000407AF1EE10FA00F08480D7ED727AB7EE37
:102DB000007AF4EE477AF1EE10FA3BD197F9C72189
:102DC00097F9C60107F5EC73A3F5E6731968134686
:102DD0005B0013445B000344A0339B000B4493ED62
:102DE000007A97F9C72197F9C50107F5EC73A3F5A8
:102DF000E67319681346DB001344034418339B0041
:102E00000B440433D3ED007A97F9C72197F9C60133
:102E100077EE277A07F5EC73A3F5E6731968134686
:102E20005B0013445B000344A0339B000B44C3EDE1
:102E3000007A3EE097F9C72197F9C60107F5EC73D0
:102E4000A3F5E673196813465B0013445B00034463
:102E5000A0339B000B4493ED007A97F9C72197F9B3
:102E6000C50107F5EC73A3F5E67319681346DB009B
:102E70001344034418339B000B440433D3ED006A1E
:102E8000D7ED727A66EEA77A97F9C72197F9C6014E
:102E900077EE277A07F5EC73A3F5E6731968134606
:102EA0005B0013445B000344A0339B000B44C3ED61
:102EB000007A97F9C531DBB20133DBB287F8C5314F
:102EC00097F9C531082B7FF70AAF97F9C631DBB206
:102ED0000133DBB287F8C63197F9C631052B7FF78E
:102EE000E6AE97F9C731DBB20133DBB287F8C73101
:102EF00097F9C731082B7FF7D6AE002387F8C73183
:102F000038E197F8C73187F8C63127E1ABAAAA3D67
:102F100097F9C72197F9C6319A421AD197F9C73163
:102F200097F9C72197F9C60107F5EC71A1F5E6718C
:102F30000968DC339B000B44196813465B0013449B
:102F40005B0003449B0007F5EC721344A83B196037
:102F500010E097F9C72197F9C61113465B00134497
:102F60005B000B449B0007F5EC721344A83B4FF049
:102F700000021A60002387F8C531E3E04FF0000338
:102F8000C7F8CC3197F9C731022B1CDC97F9C52162
:102F900097F9C7319A4203D14FF07E53C7F8CC312D
:102FA00097F9C52197F9C73106339A422BD107F516
:102FB000EC73A3F5E6731B68D3EDFC7AF1EE677A48
:102FC000C7ED737A1FE097F9C731052B1BDC97F922
:102FD000C52197F9C7319A4203D14FF07E53C7F804
:102FE000CC3197F9C52197F9C73103339A420AD1F9
:102FF00007F5EC73A3F5E6731B68D3EDFC7AF1EEED
:10300000677AC7ED737AD7ED737AF5EE407AF1EE11
:1030100010FA00F0908097F9C52197F9C60107F5DD
:10302000EC73A3F5E673196813465B0013445B0069
:103030000344A0339B000B44D3ED007AF5EE407AB5
:10304000F1EE10FA77D0D7ED737AB7EE007AF4EE9E
:10305000477AF1EE10FA35D197F9C72197F9C611E1
:1030600013465B0013445B000B449B0007F5EC72B6
:103070001344A83B93ED007A97F9C52197F9C6014F
:1030800007F5EC73A3F5E673196813465B00134468
:103090005B000344A0339B000B44D3ED007A97F907
:1030A000C72197F9C61177EE277A13465B001344C0
:1030B0005B000B449B0007F5EC721344A83BC3ED87
:1030C000007A38E097F9C72197F9C61113465B00DB
:1030D00013445B000B449B0007F5EC721344A83BC0
:1030E00093ED007A97F9C52197F9C60107F5EC73BE
:1030F000A3F5E673196813465B0013445B000344B1
:10310000A0339B000B44D3ED006AD7ED737A66EED3
:10311000A77A97F9C72197F9C61177EE277A134650
:103120005B0013445B000B449B0007F5EC721344F7
:10313000A83BC3ED007A97F9C531DBB20133DBB2AE
:1031400087F8C53197F9C531082B7FF717AF97F985
:10315000C631DBB20133DBB287F8C63197F9C6312D
:10316000052B7FF7D5AE97F9C731DBB20133DBB260
:1031700087F8C73197F9C731052B7FF7C2AE012316
:1031800087F8C73135E0002387F8C63124E097F986
:10319000C61197F9C74197F9C72197F9C6010B46A0
:1031A0005B000B445B0023449B0007F5EC710B4470
:1031B000A83B196813465B0013445B0003449B0063
:1031C00007F5EC721344A83B196097F9C631DBB2DE
:1031D0000133DBB287F8C63197F9C62197F9C731B9
:1031E0009A42D4DB97F9C731DBB20133DBB287F8FF
:1031F000C73197F9C731052BC5DD002387F8C731E3
:1032000017E097F9C72197F9C71107F5987013468A
:103210005B001344DB00C21807F5EC73A3F5D87309
:1032200043F8212097F9C731DBB20133DBB287F8CD
:10323000C73197F9C731052BE3DD07F1100407F11A
:10324000180207F1200107F1280007F14303019359
:1032500006230093234615F0AFFE07F5EC73A3F2A7
:10326000951393F90030002B40F0BF80002387F8BE
:10327000C731B4E0002387F8C631A4E097F9C7212D
:1032800097F9C60107F5EC73A3F5E67319681346C1
:103290005B0013445B0003446A339B000B444FF014
:1032A00000021A60002387F8C53180E097F9C72132
:1032B00097F9C50107F5EC73A3F5E6731968134692
:1032C0005B0013445B000344A0339B000B44D3ED2D
:1032D000007AF5EE407AF1EE10FA61D097F9C52147
:1032E00097F9C61113465B0013445B000B449B0027
:1032F00007F5EC721344A83BD3ED007AF5EE407A63
:10330000F1EE10FA4CD097F9C72197F9C60107F5ED
:10331000EC73A3F5E673196813465B0013445B0076
:1033200003446A339B000B4493ED007A97F9C7215D
:1033300097F9C50107F5EC73A3F5E6731968134611
:103340005B0013445B000344A0339B000B44D3EDAC
:10335000006A97F9C52197F9C61113465B0013441B
:103360005B000B449B0007F5EC721344A83BD3EDC4
:10337000007A66EEA77A97F9C72197F9C60177EE2A
:10338000277A07F5EC73A3F5E673196813465B001B
:1033900013445B0003446A339B000B44C3ED007A83
:1033A00097F9C531DBB20133DBB287F8C53197F944
:1033B000C531052B7FF77AAF97F9C631DBB2013300
:1033C000DBB287F8C63197F9C631052B7FF756AFC8
:1033D00097F9C731DBB20133DBB287F8C73197F910
:1033E000C731082B7FF746AF31E0002387F8C7319C
:1033F00029E0002387F8C6311AE097F9C72197F929
:10340000C60107F5EC73A3F5E673196813465B0074
:1034100013445B0003446A339B000B444FF00002EB
:103420001A6097F9C631DBB20133DBB287F8C631D7
:1034300097F9C631052BE0DD97F9C731DBB20133CF
:10344000DBB287F8C73197F9C731082BD1DD0023EC
:1034500087F8C7314EE197F9C72107F5EC73A3F55B
:10346000E673196802F1EE039B000B444FF0000174
:10347000196097F9C73107F5EC71A1F5E671096894
:10348000EE3292000A44116807F5EC72A2F5E6727A
:10349000106803F1E80292000244116097F9C70135
:1034A00007F5EC72A2F5E6721268E8339B0013444C
:1034B0001A6807F5EC73A3F5E673196800F1E403E5
:1034C0009B000B4404331A60002387F8C63105E1E2
:1034D00097F9C72197F9C60107F5EC73A3F5E673D1
:1034E000196813465B0013445B0003446A339B0076
:1034F0000B44D3ED007AF5EE407AF1EE10FA3CD0B1
:1035000097F9C73107F5EC72A2F5E6721268E43359
:103510009B001344043393ED007A97F9C72197F980
:10352000C60107F5EC73A3F5E673196813465B0053
:1035300013445B0003446A339B000B44D3ED006AE1
:1035400097F9C63107F5EC72A2F5E6721268D63328
:103550009B001344D3ED007A66EEA77A97F9C73142
:1035600077EE277A07F5EC72A2F5E6721268E4337B
:103570009B0013440433C3ED007A97F9C731DA1C7A
:1035800097F9C60107F5EC73A3F5E67319681346BE
:103590005B0013445B0003446A339B000B44D3ED90
:1035A000007AF5EE407AF1EE10FA3BD097F9C73188
:1035B00007F5EC72A2F5E6721268E8339B0013443B
:1035C00093ED007A97F9C731DA1C97F9C60107F530
:1035D000EC73A3F5E673196813465B0013445B00B4
:1035E00003446A339B000B44D3ED006A97F9C6315C
:1035F00007F5EC72A2F5E6721268D6339B0013440D
:10360000D3ED007A66EEA77A97F9C73177EE277A7D
:1036100007F5EC72A2F5E6721268E8339B001344DA
:10362000C3ED007A97F9C7319A1D97F9C60107F5DE
:10363000EC73A3F5E673196813465B0013445B0053
:1036400003446A339B000B44D3ED007AF5EE407AD5
:10365000F1EE10FA3BD097F9C73107F5EC72A2F5FD
:10366000E6721268EE339B00134493ED007A97F9EB
:10367000C7319A1D97F9C60107F5EC73A3F5E673F8
:10368000196813465B0013445B0003446A339B00D4
:103690000B44D3ED006A97F9C63107F5EC72A2F539
:1036A000E6721268D6339B001344D3ED007A66EEBF
:1036B000A77A97F9C73177EE277A07F5EC72A2F56A
:1036C000E6721268EE339B001344C3ED007A97F95B
:1036D000C631DBB20133DBB287F8C63197F9C631A8
:1036E000052B7FF7F5AE97F9C731DBB20133DBB2BB
:1036F00087F8C73197F9C731022B7FF7ACAE07F5D2
:10370000EC73A3F5E6731B68D3EDE57AF1EE677A07
:1037100007F5EC73A3F5C073C3ED017A07F5EC73FD
:10372000A3F5E6731B68D3EDE67AF1EE677A07F549
:10373000EC73A3F5C073C3ED027A07F5EC73A3F540
:10374000E6731B68D3EDE77AF1EE677A07F5EC7361
:10375000A3F5C073C3ED037A07F5EC73A3F5C0734B
:1037600093ED017A07F5EC73A3F5C073D3ED017AFD
:1037700067EE277AB7EE007A37EE677A07F5EC73D3
:10378000A3F5C073D3ED026A07F5EC73A3F5C0731C
:10379000D3ED027A66EEA77A37EE677A07F5EC7317
:1037A000A3F5C073D3ED036A07F5EC73A3F5C073FB
:1037B000D3ED037A66EEA77A77EE677A17EE900A72
:1037C00012F074FF02460B4643EC102B1AF009FC72
:1037D00053EC102B1046194612F03CFF034600EE46
:1037E000103A1AF0D9FBF0EE407A07F5EC73A3F526
:1037F000C073C3ED007A07F1580207F19403114634
:10380000184616F04FFA07F1DC0207F1940107F1B0
:10381000C400002315F040FE07F5EC73A3F5E67332
:103820001B68D3EDE87AF1EE677A07F5EC73A3F540
:10383000C073C3ED017A07F5EC73A3F5E6731B685B
:10384000D3EDE97AF1EE677A07F5EC73A3F5C0736F
:10385000C3ED027A07F5EC73A3F5E6731B68D3EDAD
:10386000EA7AF1EE677A07F5EC73A3F5C073C3ED5E
:10387000037A07F5EC73A3F5C07393ED017A07F5AE
:10388000EC73A3F5C073D3ED017A67EE277AB7EE38
:10389000007A37EE677A07F5EC73A3F5C073D3EDC2
:1038A000026A07F5EC73A3F5C073D3ED027A66EEF6
:1038B000A77A37EE677A07F5EC73A3F5C073D3EDFB
:1038C000036A07F5EC73A3F5C073D3ED037A66EED4
:1038D000A77A77EE677A17EE900A12F0E7FE0246B3
:1038E0000B4643EC102B1AF07CFB53EC102B1046CC
:1038F000194612F0AFFE034600EE103A1AF04CFBE8
:10390000F0EE407A07F5EC73A3F5C073C3ED007ACF
:1039100007F1580207F194031146184616F0C2F950
:1039200007F1D00207F1940107F1B800002315F068
:10393000B3FD07F5EC73A3F5E6731B6803F1140000
:1039400007F5EC73A3F5E6731B6803F5627107F5E1
:10395000EC73A3F5E6731B6803F5637207F5EC736C
:10396000A3F5E6731B6803F5647407F1480303933A
:1039700007F14403029307F1C403019307F1B8036D
:103980000093234615F047FF07F5EC73A3F5E673A4
:103990001B6803F1140207F5EC73A3F5E6731B68CB
:1039A00038331946104606F0D5FF07F5EC73A3F53A
:1039B000E6731B6803F1380207F5EC73A3F5E673B1
:1039C0001B6848331946104607F0DEF8002387F8D5
:1039D000C731F2E097F9C73107F5EC72A2F5E6724C
:1039E0001268EE339B00134493ED007A07F5EC73F5
:1039F000A3F5E6731B6803F20443D3ED007AB4EE3B
:103A0000E77AF1EE10FA25DD97F9C73107F5EC7288
:103A1000A2F5E6721268EA339B001344043393ED77
:103A2000007A07F5EC73A3F5E6731B6803F2044311
:103A3000D3ED007A97F9C73177EE677A07F5EC7224
:103A4000A2F5E6721268EA339B0013440433C3ED17
:103A5000007A69E097F9C73107F5EC72A2F5E672D2
:103A60001268EE339B00134493ED007A07F5EC7374
:103A7000A3F5E6731B6803F20443D3ED007AF1EE7D
:103A8000677AB4EEE77AF1EE10FA25D597F9C731E7
:103A900007F5EC72A2F5E6721268EA339B00134454
:103AA000043393ED007A07F5EC73A3F5E6731B6816
:103AB00003F20443D3ED007A97F9C73177EE277A02
:103AC00007F5EC72A2F5E6721268EA339B00134424
:103AD0000433C3ED007A27E097F9C73107F5EC729C
:103AE000A2F5E6721268EA339B001344043393EDA7
:103AF000007A97F9C73107F5EC72A2F5E672126801
:103B0000EE339B001344D3ED007A97F9C73177EE7B
:103B1000677A07F5EC72A2F5E6721268EA339B0049
:103B200013440433C3ED007A97F9C73107F5EC72FB
:103B3000A2F5E6721268EA339B0013440433D3ED16
:103B4000007AB1EE0C7AF4EEC77AF1EE10FA0CDDE1
:103B500097F9C73107F5EC72A2F5E6721268EA33FD
:103B60009B00134404338D4A1A6097F9C73107F557
:103B7000EC72A2F5E6721268EA339B001344043338
:103B8000D3ED007AB9EE0C7AF4EEC77AF1EE10FAC2
:103B90000CD597F9C73107F5EC72A2F5E6721268F9
:103BA000EA339B00134404337D4A1A6097F9C73106
:103BB000DBB20133DBB287F8C73197F9C731022B8B
:103BC0007FF708AF07F5EC73A3F5E6731B6803F501
:103BD000717007F5EC73A3F5E6731B6803F114012C
:103BE00007F5EC73A3F5E8731B6803F1D402012316
:103BF00015F052FC07F5EC73A3F5E6731B68D3EDE3
:103C0000F17AF1EE677A07F5EC73A3F5E6731B68BA
:103C1000C3EDF17A07F5EC73A3F5E6731B68D3EDFA
:103C2000F27AF1EE677A07F5EC73A3F5E6731B6899
:103C3000C3EDF27A07F5EC73A3F5E6731B68D3EDD9
:103C4000F37AB7EE007A77EEC77AF1EE677A07F586
:103C5000EC73A3F5E6731B68C3EDF37A002387F8D2
:103C6000C73167E097F9C73107F5EC72A2F5E67244
:103C70001268F4339B00134493ED007A97F9C7312F
:103C800007F5EC72A2F5E6721268F0339B0013445C
:103C90000433D3ED006A07F5EC73A3F5E6731B68F4
:103CA000D3EDFB7A66EEA77A97F9C73177EE277ADC
:103CB00007F5EC72A2F5E6721268F4339B00134428
:103CC000C3ED007A97F9C73107F5EC72A2F5E672F9
:103CD0001268F6339B001344043393ED007A97F98E
:103CE000C73107F5EC72A2F5E6721268F4339B0057
:103CF0001344D3ED006A07F5EC73A3F5E6731B6874
:103D0000D3EDFA7A66EEA77A97F9C73177EE277A7C
:103D100007F5EC72A2F5E6721268F6339B001344C5
:103D20000433C3ED007A97F9C731DBB20133DBB25C
:103D300087F8C73197F9C731022B93DD07F5EC738C
:103D4000A3F5E6731B6803F1140007F5EC73A3F504
:103D5000E673196807F5EC73A3F5E6731B681C1D81
:103D600007F5EC73A3F5E6731B6803F1080507F587
:103D7000EC73A3F5E6731B680C3307F5EC72A2F540
:103D8000E67212681032019200932B46224606F02A
:103D9000FBFB00BF07F5EE77BD46F0BD0000E0403D
:103DA0000000E0C0FFFFFFFF2DE9F047F7EE007ACB
:103DB0002DED048BF4EE670AF1EE10FA82B0F0EE0E
:103DC000608A1AD0B5EEC00AF1EE10FA33D8B5EE1B
:103DD000400AF1EE10FA15D1F5EEC00AF1EE10FA34
:103DE00000F2BD80944BF5EE400A2122F1EE10FA6C
:103DF0001A6000F01A819FED910A02B0BDEC048BAD
:103E0000BDE8F087FDEEE07AB1EE400A17EE90AA29
:103E10000AF0010AF0EE007AF4EE678AF1EE10FA89
:103E20000CD1DFED877AB4EEE70AF1EE10FA05D592
:103E300020EE000AE1E74FF0000AEBE701A812F0DC
:103E400025F810EE100A12F031FC79A3D3E9002313
:103E50000F4606461AF023FC002814BF082400244D
:103E6000784D04F1040805EBC80132463B46D1E920
:103E700000011AF03FFC002818BF444604F1020874
:103E800005EBC80132463B46D1E900011AF032FC8D
:103E9000002818BF444605EBC403D3E90289304625
:103EA00042464B46394612F075FA12F0D3FB07EE44
:103EB000900A32463B464046494637EEA78A12F002
:103EC0003FFB12F0C7FB07EE900A88EE279A019895
:103ED000C4EB00100138DFED5C6ADFED5C7A29EE9F
:103EE000097AE7EE267A67EE877A9FED597A67EED0
:103EF000897AE7EE877AE9EE077AB0EE678A07EE0D
:103F0000900AFAEECE7A17EE900A12F0CFFB78EE16
:103F1000097A064617EE900A0F4612F0C7FB0246D2
:103F20000B463046394612F00BFB064618EE900A57
:103F30000F4612F0BBFB02460B463046394612F0E4
:103F40000FF9444B002206460F4612F009F91AF009
:103F5000F1FA10F5006F05DA374B22221A609FED57
:103F60003E0A4AE707EE900A0028B4BF00F10F04AA
:103F70000411F8EEE77AB4BF24110134C0EB041841
:103F800017EE900A12F092FB344B002212F0E8F880
:103F900002460B463046394612F0FCF912F05AFB45
:103FA0009FED2F7ADFED2F6A07EE900AE7EE876A22
:103FB00005EBC8059FED2C7AA6EEA77ADFED2B6AFC
:103FC000E7EE276A9FED2A7AA6EEA77A67EE277AB0
:103FD00017EE900A12F06AFB264B002212F0B0FA9C
:103FE000D5E9002312F0BCF812F034FB00EE100A01
:103FF00001A811F04BFF01982044802809DD0E4BE9
:1040000022221A60BAF1000F7FF4F5AE9FED1A0A72
:10401000F3E610F17D0F9FDB11F062FFBAF1000FA4
:104020003FF4EBAEB1EE400AE7E6B0EE670AE4E635
:10403000CD3B7F669EA0E63F8C700020000080FF95
:10404000A95F635808E8010000E84C3CAAAAAA3D11
:10405000EDA8E23E00003040000000000000B03F4C
:104060001815AB3A4B8D1D3C3758633DF0FD753E3E
:104070001872313F0000F03F0000807FFFFFFFFF1C
:104080002DE9F84355EC104B10EE100A00220023E6
:1040900029461AF004FB78B1002200232046294665
:1040A0001AF0A7FA20B13A4B3A4D21221A600024A7
:1040B00045EC104BBDE8F88340F2FE33C5F30A58D7
:1040C00063F31E5520462CA3D3E90023294612F0A2
:1040D00047F82BA3D3E9002312F032FA06460F4625
:1040E00002460B462046294612F0B8F832463B46B7
:1040F00012F026FA284B002212F032F806460F463C
:1041000002460B462046294612F0A8F832463B46A6
:1041100012F016FA204B002212F022F802460B464B
:1041200006460F462046294612F098F832463B468E
:1041300012F006FA184B002212F012F8A8F2FE391B
:1041400019F0010F04460D460AD00FA3D3E900234E
:1041500012F006F86FF47F7304460D4608EB03096E
:10416000C5F30A5309EBD97903EB690969F31E55C5
:104170009EE700BFAFF3008018096D3997E2E23F78
:10418000F7CC920035B5DA3FCD3B7F669EA0E63F87
:104190008C7000200000F0FF0000E03FFFFFFFFFF9
:1041A000D0B5DFED3F7AF4EEE70AF1EE10FA2DED2F
:1041B000028B10EE103A044609DB3A4B9FED3A8A27
:1041C00021221A60B0EE480ABDEC028BD0BDDFEDB3
:1041D000377A9FED377A70EEA70AC0EE877AFDEE48
:1041E000E77A17EE902AD207B8EEE78A48BF444232
:1041F00019B1F6EE007A38EE678A184612F056FAD0
:10420000064618EE100A0F4612F050FA22A3D3E920
:10421000002311F0A5FF02460B463046394612F046
:10422000B9F812F017FA00EE100A08EE100A19F0A9
:1042300098FEDFED207AB4EEE70AF1EE10FA23DB08
:1042400068EE087ADFED1C6A9FED1C7AA7EEA67A6D
:10425000DFED1B6AE7EE276A9FED1A7AA6EEA77AD2
:10426000DFED196AE7EE276A9FED187AA6EEA77AC6
:10427000DFED176AE7EE276A9FED167AA6EEA77ABA
:1042800067EE277AA8EE278A002CB8BFB1EE488ADD
:1042900098E700BFAFF30080182D4454FB2109407C
:1042A0000050C3478C700020000080FFDB0FC93F27
:1042B000DB0F4940FFE6DB2EFB074427072157AB06
:1042C000E391302F2A32D7B21DEF3836010D50B9A5
:1042D0008988083CABAA2ABEF8B52DED028B0546AD
:1042E000B0EE408A19F03DFEDFED417AB4EEE70A08
:1042F000F1EE10FA07DB3F4B9FED3F0A21221A60D7
:10430000BDEC028BF8BDDFED3D7ADFED3D6AB0EE2E
:10431000007AE0EE077AB5EEC08A87EEA67AF1EE73
:1043200010FAFDEEC77A18EE100A17EE904A48BF51
:10433000644212F0BBF907EE904AF8EEE77A0646BF
:1043400017EE900A0F4612F0B1F927A3D3E9002324
:1043500011F006FF02460B463046394612F01AF8B5
:1043600012F078F900EE100A08EE100A19F0F9FDC3
:10437000DFED247AB4EEE70AF1EE10FAF7EE007AF8
:104380001FDD28EE087ADFED206A9FED206AA7EE98
:10439000266ADFED1F6AE6EE076A9FED1E6A66EE8B
:1043A000876AA6EE888ADFED1C6AE7EE066A9FED53
:1043B0001B6AA6EE876ADFED1A6AE6EE076AE6EE8A
:1043C000877A04F0010445B914B988EE270A97E703
:1043D000F1EE677A87EE880A92E7002CFAD0B1EE08
:1043E000488AF2E7AFF30080182D4454FB21F93FCF
:1043F0000050C3478C700020000080FFDB0FC93FD6
:10440000DB0F4940FFE6DB2EB9D595B71574603B4D
:10441000AF9508BEA8BB0535257BA3B9F53CD23CBA
:1044200082F5EEBEFFFFFFFF2DE9F84F2DED028B69
:10443000834659EC108B19F0D4FD55EC104B9CA31E
:10444000D3E9002310EE100A29461AF0D2F800280A
:1044500040F0D280904B0022204629461AF0F4F812
:10446000002800F0BF808D4B0022204629461AF01C
:10447000EBF850B18A4B8B4D21221A600024BDEC21
:10448000028B45EC104BBDE8F88F22462B46824943
:10449000002011F07FFF804B002212F051F87E4B7C
:1044A000002211F05DFE06460F4647EC106BFFF749
:1044B000E7FD002251EC100B4FF0404311F050FE8D
:1044C000CBF1010A04460D465FA3D3E90023304631
:1044D000394611F045FE5EA3D3E9002312F030F80F
:1044E00032463B4611F03CFE5BA3D3E9002311F0BA
:1044F00051FF32463B4611F033FE59A3D3E9002366
:1045000012F01EF832463B4611F02AFE56A3D3E9BC
:10451000002311F03FFF32463B4611F021FE54A329
:10452000D3E9002341EC180B3046394611F032FF35
:1045300032463B4611F014FE4FA3D3E9002311F09D
:10454000FFFF32463B4611F00BFE4DA3D3E900239B
:1045500011F020FF32463B4611F002FE4AA3D3E998
:10456000002311F0EDFF32463B4611F0F9FD48A360
:10457000D3E9002311F00EFF02460B4651EC180B55
:1045800011F06CFE22462B4611F0EAFD02460B4666
:104590002046294611F0D4FF04460D464FEACA0AC8
:1045A000BBF1000F2AD1404B9A44DAE9006722465A
:1045B0002B463046394611F0C3FF02460B463046C3
:1045C000394611F0BDFF002204460D460023404647
:1045D00049461AF00EF800283FF451AF05F10043A8
:1045E0001D464CE722462B462046294611F0B8FDD1
:1045F000DA4606460F4667E7DA46CFE70022002391
:104600004046494619F0F5FF90B1284B9A44DAE943
:10461000006722462B463046394611F091FF02468C
:104620000B463046394611F08BFF04460D4626E70F
:104630001D4B9A44DAE9006722462B46304639463C
:1046400011F0A8FEEBE700BF651EE6B5BD4BE6BF67
:104650002739EC64174E24409FDAA6A92CD8434092
:104660008AD40A36A79A4C40620A3AA8555E3B4063
:104670001F86F96EE8D23740701C59967CDE624086
:1046800048A856FCCEDD774043B81E104F127A4042
:10469000CC872B3EC08664400000E03F0000F03F26
:1046A0008C7000200000F0FF90E80100A0E80100FD
:1046B000BBBDD7D9DF7CDB3D80B582B000AF786071
:1046C0007968024811F00CFB00BEFDE7B0E801007C
:1046D00080B588B000AF87ED040AC7ED030ABA6061
:1046E0007B600346FB750B46BB820023FB830023E4
:1046F000BB8300F0A1FF03467B8397ED047AD7EDDF
:10470000037A77EE677A534BC3ED007A514BD3EDC2
:10471000007A9FED517AF4EEC77AF1EE10FA19DDC6
:104720004C4B1B68184611F0C1FF02460B464FF078
:1047300000004A4911F02EFE02460B46104619466B
:1047400011F088FF034607EE903AF1EE677A414B8D
:10475000C3ED007A3F4BD3ED007A9FED417AF4EE42
:10476000C77AF1EE10FA09D83A4BD3ED007A9FEDF3
:104770003D7A77EE877A374BC3ED007ABB8A07EE36
:10478000903AB8EE677A334BD3ED007A67EE277A2A
:1047900017EE900A11F08AFF4FF00002324B11F031
:1047A0005DFD02460B461046194619F0C3FE03464E
:1047B0001BB29AB2BB8A13449BB2FB83BB8A07EE3F
:1047C000903AB8EE677A234BD3ED007A67EE277AFA
:1047D00017EE900A11F06AFF4FF00002224B11F021
:1047E0003DFD02460B461046194619F0A3FE03464E
:1047F0001BB29BB2BA8AD31A9BB2BB83B7F91E30E5
:10480000002B03DCBB6800221A800BE0B7F91E20E6
:104810007B8B9A4203DBBB687A8B1A8002E0FA8BAF
:10482000BB681A80B7F91C30002B03DC7B680022C0
:104830001A800BE0B7F91C207B8B9A4203DB7B6864
:104840007A8B1A8002E0BA8B7B681A8000BF20370F
:10485000BD4680BDC000002000003443008076408B
:10486000000034C30000B4430000244080B590B081
:1048700002AF7860604B18684FF0FF33009300235D
:10488000012201210EF0E2FA5C4B1B78732BF1D16F
:104890005B4B18785B4B19885B4BD3ED007A5B4B15
:1048A00003F5805303F65C7393ED007A07F10E0372
:1048B00007F11002F0EE470AB0EE670AFFF708FFB3
:1048C0004F4B1B78398AFA89184600F0CDFD504BC2
:1048D0001B783B754F4B1B787B754D4B1B78013319
:1048E000DAB24B4B1A70494B03F50053D3F814332B
:1048F0007B6397F83430BB7597F83530FB7597F8C4
:1049000036303B7697F837307B76404B03F50053D3
:10491000D3F818337B6397F83430BB7697F835308B
:10492000FB7697F836303B7797F837307B77374B05
:1049300003F50053D3F81C337B6397F83430BB770F
:1049400097F83530FB7797F8363087F8203097F8AE
:10495000373087F821302D4B03F5805303F575630D
:104960001B687B6397F8343087F8223097F835302E
:1049700087F8233097F8363087F8243097F83730A7
:1049800087F82530214B03F5805303F654731B68D9
:104990007B6397F8343087F8263097F8353087F8FE
:1049A000273097F8363087F8283097F8373087F86F
:1049B0002930164B03F5805303F65C731B687B6349
:1049C00097F8343087F82A3097F8353087F82B304D
:1049D00097F8363087F82C3097F8373087F82D3035
:1049E0001A23FB7407F1130207F11403114618464A
:1049F00000F070FA3EE700BFB800002056710020BA
:104A0000B40000204C710020BC00002014030020E2
:104A1000547100205571002080B58EB000AF7860D1
:104A2000002387F8373007F10F0207F11003114612
:104A3000184600F013FA034687F8373097F83730F6
:104A4000012B0CD1FB7B012B09D13A7C184B1A703E
:104A5000184B1B780133DAB2164B1A7027E097F81F
:104A60003730012BDFD1FB7B072BDCD1114B1B78BF
:104A70000133DAB20F4B1A703A7C0F4B1A707B7C01
:104A800087F83430BB7C87F83530BA8E0B4B1A80F0
:104A9000FB7C87F830303B7D87F831307B7D87F8B1
:104AA0003230BB7D87F833303B6B054A1360BAE781
:104AB0005671002055710020B40000204C71002078
:104AC000BC00002080B584B002AF174B0093174B99
:104AD000174A1849002000F097F90346FB71FB794B
:104AE000012B1BD1002301930123009300234FF4DA
:104AF00000721149114819F029F90023019300238C
:104B0000009300234FF400720D490E4819F01EF96E
:104B100018F08BFC03460C4A136002E00B48FFF7C9
:104B2000CBFD0837BD4680BDED500000B5500000FC
:104B3000795000000D500000C4E801006D480000ED
:104B4000D0E80100194A0000B8000020DCE80100AC
:104B500080B500AF034B1B680121184618F0B4FC68
:104B600000BF80BDB800002080B400AF084B9B8C14
:104B70004FF6FF72934205D0054B9B8C01339AB2DE
:104B8000034B9A8400BFBD465DF8047B704700BFAD
:104B9000C400002080B400AF084BDB8C4FF6FF72DE
:104BA000934205D0054BDB8C01339AB2034BDA8478
:104BB00000BFBD465DF8047B704700BFC400002005
:104BC00080B582B000AF0346FB71FB79102B03D197
:104BD000044B01221A7001E0FFF7C6FF00BF08373F
:104BE000BD4680BDC400002080B582B000AF034642
:104BF000FB71FB79022B0AD1094B00225A70084B3A
:104C0000002283F82320064B02221A7004E0044B92
:104C100000221A70FFF7A8FF00BF0837BD4680BD0D
:104C2000C400002080B582B000AF0346FB71FB7961
:104C3000102B03D1134B03221A701FE0114B5B782A
:104C40001F2B16D80F4B5B781A460E4B1344FA797C
:104C50009A700C4B93F82320FB795340DAB2094B3E
:104C600083F82320074B5B780133DAB2054B5A7087
:104C700004E0FFF779FF034B00221A7000BF0837EA
:104C8000BD4680BDC400002080B582B000AF0346A1
:104C9000FB71FB79102B06D0102B37DC022B2AD0AE
:104CA000032B24D032E01E4B5B781F2B19D81C4BF2
:104CB0005B781A461A4B1344FA799A70184B93F89A
:104CC0002320FB795340DAB2154B83F82320144B91
:104CD0005B780133DAB2124B5A70114B02221A7010
:104CE0001AE0FFF741FF0E4B00221A7014E00C4B44
:104CF00004221A7010E00A4B00225A70084B00225E
:104D000083F82320064B02221A7005E0FFF72CFFE0
:104D1000034B00221A7000BF00BF0837BD4680BD9C
:104D2000C400002080B582B000AF0346FB71124B77
:104D30005B7803F00103002B08D00F4B93F823306E
:104D400083F04A03DAB20C4B83F823200A4B93F822
:104D50002330FA799A4206D1074B012283F82220A8
:104D6000FFF718FF01E0FFF7FFFE034B00221A7068
:104D700000BF0837BD4680BDC400002080B582B0AA
:104D800000AF0023FB712BE01E4B1B78042B26D8B1
:104D900001A252F823F000BFAD4D0000B74D000056
:104DA000C14D0000CB4D0000D54D0000FB791846E9
:104DB000FFF706FF14E0FB791846FFF715FF0FE039
:104DC000FB791846FFF72EFF0AE0FB791846FFF73C
:104DD0005BFF05E0FB791846FFF7A4FF00E000BF8A
:104DE000084B93F82230002B07D1064BDB6AFA1DE3
:104DF000104698470346012BC6D000BF0837BD4672
:104E000080BD00BFC400002080B584B000AFF86052
:104E1000B9607A603B60BB68002B02D00E4ABB6869
:104E200093627B68002B02D00B4A7B68D3623B689D
:104E3000002B02D0084A3B681363BB69002B02D0E9
:104E4000054ABB695363044B9B6AF868984703465D
:104E500018461037BD4680BDC400002080B584B020
:104E600000AF786039600023BB73FFF787FF184BF2
:104E700093F82230012B21D1154B5B78202B1DD8C4
:104E8000134B002283F822200023FB730AE0FA7BF5
:104E9000FB7B79680B440E490A4492781A70FB7BBD
:104EA0000133FB730A4B5B78FA7B9A42EFD3084BD2
:104EB0005A783B681A700123BB7304E03B680022F8
:104EC0001A700023BB73BB7B18461037BD4680BDEC
:104ED000C400002080B584B000AF78603960002342
:104EE000FB733B681B78BB7300237B733B681B78A9
:104EF000202B01D9002354E07B7B5A1C7A731A467D
:104F00002A4B102199547B7B5A1C7A731A46274BE3
:104F1000022199541DE07B681B78102B06D17B7B06
:104F20005A1C7A731A46214B102199547B7B5A1CC8
:104F30007A731A467B6819781C4B99547B681A78E7
:104F4000FB7B5340FB737B6801337B60BB7B013B86
:104F5000BB73BB7B002BDED13B681B7803F00103E6
:104F6000002B03D0FB7B83F04A03FB737B7B5A1C33
:104F70007A731A460D4B102199547B7B5A1C7A7315
:104F80001A460A4B032199547B7B5A1C7A731946A3
:104F9000064AFB7B5354064B1B6B1B210548984765
:104FA000012318461037BD4680BD00BFFC0000201D
:104FB000C40000207C01002080B483B000AF034611
:104FC0003960FB7197F90730002B0ADB3B68DAB2D6
:104FD0000C4997F907301201D2B20B4483F8002331
:104FE0000AE03B68DAB20849FB7903F00F03043B9F
:104FF0001201D2B20B441A7600BF0C37BD465DF8E1
:10500000047B704700E100E000ED00E080B58AB06D
:1050100000AF786005212120FFF7CEFF4FF4E13388
:105020003B6100233B7500237B750F4BBB614FF445
:105030008073FB61002009F083F80346FB600B4B93
:10504000BB6007F108031A4609490A4808F0C8FD81
:1050500078627B6A002B01D0002300E00123184610
:105060002837BD4680BD00BF1402002000A00240CA
:10507000E4010020BC01002080B586B000AF78605C
:1050800007F10C0301227968094817F047F93861E4
:105090003B69002B05D1FB68012B02D10123FB7575
:1050A00001E00023FB75FB7D18461837BD4680BD27
:1050B000BC01002080B584B000AF78600B46FB7067
:1050C000FB781A467968084817F0D3F8B860BB68CF
:1050D000002B02D00023FB7301E00123FB73FB7B59
:1050E00018461037BD4680BDBC01002080B500AF1A
:1050F000024817F088F80123184680BDBC01002043
:1051000090B587B004AF18F06CF918F010F918F0EA
:105110002BF918F0DFF84D4B7B604D4B3B607B6803
:105120009B684C4898477B681B69022098477B68BE
:105130009B6A0221022098473B689B684648984733
:105140003B681B69022098473B689B6A022102204A
:10515000984702F013F8414801F05CFB00F02CF98D
:105160003F4808F01FFA3D4A3D493E4808F002F822
:105170003C4B03F50053D3F85C433B4B03933B4B51
:1051800002933B4B01937B68009301231E22394914
:105190003448A047334B03F50053D3F85C43364BF8
:1051A0000393364B0293324B01937B6800930123A8
:1051B000202233492B48A0472A4B03F50053D3F84C
:1051C0005C43304B0393304B0293294B01937B6834
:1051D0000093022360222D492248A047214B03F56A
:1051E0000053D3F860331F48984718F01EF9034660
:1051F000274A1360002301930323009300234FF4F5
:1052000000722449244818F0A1FD002301930223D1
:10521000009300234FF400722049214818F096FDB6
:10522000FFF750FC0F4B03F50053D3F878330321FD
:105230000C4898470EF080FB0A4B03F50053D3F857
:105240007833062107489847FEE700BF74F0010055
:105250003CF0010091D6000061D600009C260020A1
:10526000AC26002014030020C76C0100756C000000
:1052700000000020C4260020296A000025690000E3
:10528000FC26002079700000F56F00003427002014
:105290006C270020ECE80100A5520000F4E80100B2
:1052A0000553000080B586B000AF78600023FB8214
:1052B0000A233B610EF038FC0346FB600123FB82AE
:1052C00011E007F10C03396918460EF0B7FA0B4BE1
:1052D00003F50053D3F86833FA8A11460748984714
:1052E000FB8A0133FB82FB8A022BEAD9044B1B6841
:1052F0000121184618F0E8F8E0E700BF1403002089
:105300006C27002080B586B002AF78600023FB8157
:105310000023BB81254B18684FF0FF330093002317
:10532000012201210DF092FD214B03F50053D3F82A
:1053300070331F4898471E4B03F50053D3F86C3366
:105340001B4898471A4B03F50053D3F864331848A9
:105350009847174B5B690133154A5361FB89013349
:10536000FB81FB89032B08D90023FB81104B03F53C
:105370000053D3F880330E4898470D4B03F5005384
:10538000D3F87C3303210A489847BB890133BB819A
:10539000BB89042B03D90023BB81FFF7D9FB044B46
:1053A0001B68DB68034902489847B3E76C27002075
:1053B00014030020D027002080B592B002AF002354
:1053C0003B7002237B7000237B8000233B71012311
:1053D000BB710223FB7100233B810023BB720223BC
:1053E0003B7302237B730023FB8100233B74032365
:1053F000BB740223FB740023BB820023BB75042310
:105400003B7602237B7600237B8300233B770523B7
:10541000BB770223FB7700233B84002387F82230ED
:1054200007F1240318460AF08FF907F124031946FF
:105430000C480AF00FF9022008F082FE03463946B4
:10544000019344F6206300930023062205480AF0E6
:10545000B5F90121034811F053FA00BF4037BD46AA
:1054600080BD00BF0080034080B584B000AF03461C
:10547000FB710B46BB8013467B806E4817F08BFA9E
:105480000346FB816B4817F086FA0346053BBB8158
:10549000FB79013B032B00F29F8001A252F823F01D
:1054A000B1540000FB540000455500008F5500002A
:1054B000BB88002200215F480AF008FB002300227D
:1054C00001215C480AF002FB002300220221594816
:1054D0000AF0FCFAFB890022032156480AF0F6FA8A
:1054E0007B880022042153480AF0F0FA00230022AE
:1054F000052150480AF0EAFA93E000230022002137
:105500004C480AF0E3FABB880022012149480AF01E
:10551000DDFA00230022022146480AF0D7FAFB896F
:105520000022032143480AF0D1FA0023002204217B
:1055300040480AF0CBFA7B88002205213D480AF05A
:10554000C5FA6EE00023002200213A480AF0BEFAB4
:10555000BB880022012137480AF0B8FABB89002233
:10556000022134480AF0B2FA002300220321314814
:105570000AF0ACFA0023002204212E480AF0A6FA11
:105580007B88002205212B480AF0A0FA49E0BB885D
:105590000022002127480AF099FA00230022012165
:1055A00024480AF093FABB890022022121480AF01C
:1055B0008DFA0023002203211E480AF087FA7B8817
:1055C000002204211B480AF081FA00230022052151
:1055D00018480AF07BFA24E0002300220021154835
:1055E0000AF074FA00230022012112480AF06EFA30
:1055F0000023002202210F480AF068FA002300224B
:1056000003210C480AF062FA002300220421094811
:105610000AF05CFA00230022052106480AF056FA37
:1056200000BF0121034811F088F900BF1037BD46C3
:1056300080BD00BF0080034080B582B000AF054848
:1056400017F0A9F903469B08FB80FB88184608372A
:10565000BD4680BD0080034080B586B000AFF860D5
:10566000B9607A607B800023FB82F0E30023BB8279
:1056700010E0B7F914300133BA681A44B7F914309E
:10568000B9680B4412781A70B7F914309BB2013321
:105690009BB2BB82B7F91430022BEADDB7F91630A2
:1056A0007A681A44BB68033312781A70BB681B7897
:1056B0001B02BA680132127813431B02BA68023225
:1056C000127813431B02BA680332127813433B610A
:1056D0003B699F4A934200F0C4813B699C4A9342D4
:1056E00000F3AE833B699B4A934200F0B1813B6972
:1056F000984A934200F3A4833B69974A934200F08F
:1057000080823B69944A934200F39A833B69934AAF
:10571000934200F06E823B69904A934200F390837B
:105720003B698F4A934200F074823B698C4A9342F2
:1057300000F386833B698B4A934200F04C823B69BD
:10574000884A934200F37C833B69874A934200F086
:10575000FD813B69844A934200F372833B69834A2B
:10576000934200F0D8813B69804A934200F36883FA
:105770003B697F4A934200F0C5813B697C4A934272
:1057800000F35E833B697B4A934200F0FD813B69F5
:10579000784A934200F354833B69774A934200F07E
:1057A000A8813B69744A934200F34A833B69734A78
:1057B000934200F08C813B69704A934200F340832E
:1057C0003B696F4A934200F08B813B696C4A93427C
:1057D00000F336833B696B4A934200F066813B6974
:1057E000684A934200F32C833B69674A934200F076
:1057F00065813B69644A934200F322833B69634AB3
:10580000934200F049813B69604A934200F3188358
:105810003B695F4A934200F006833B695C4A9342CE
:1058200000F30E833B695B4A934200F0EF823B69D1
:10583000584A934200F304833B69574A934200F36A
:10584000FF823B69554A934280F2E5803B69544AA6
:10585000934200F051823B69514A934200F3F08237
:105860003B69504A934200F037823B694D4A93426C
:1058700000F3E6823B694C4A934200F012823B6996
:10588000494A934200F3DC823B69484A934200F064
:105890002B823B69454A934200F3D2823B69444ADA
:1058A000934200F011823B69414A934200F3C8825F
:1058B0003B69404A934200F0EC813B693D4A934288
:1058C00000F3BE823B693C4A934200F0BC813B69D5
:1058D000394A934200F3B4823B69384A934200F05C
:1058E000AB813B69354A934200F3AA823B69344A53
:1058F000934200F0AF813B69314A934200F3A082AA
:105900003B69304A934200F08C813B692D4A9342B7
:1059100000F396823B692C4A934200F0B4803B69C5
:10592000294A934200F38C823B69284A934200F053
:10593000A1803B69254A934200F382823B69244A55
:10594000934200F0FA803B69214A934242E000BF53
:10595000202D4756202B475643595653434D5653F7
:105960004347565343415653205453522D435052AC
:105970002B435052534E495220203951414D3651FC
:1059800047413651204D3351204733512020335168
:105990003131415030314150393041503030415037
:1059A0005A30395059303950583039505A30394DB1
:1059B0005930394D5830394D43595245434D524570
:1059C0004347524543415245202D4244202B4244F7
:1059D0002D544C4100F334823B69B64A934200F0A7
:1059E000A3803B69B34A934200F32A823B69B24ADF
:1059F000934200F046813B69AF4A934200F3208214
:105A00003B69AE4A934200F02C813B69AC4A934219
:105A100000F02F8114E23A69AA4B1344092B00F2DB
:105A20000F8201A252F823F0095D0000235D0000FF
:105A30003D5D0000575D0000715D00008B5D000062
:105A4000A55D0000BF5D0000D95D0000F35D0000B2
:105A5000FB681B6801229A70BB6803337E221A70B0
:105A6000EFE1FB681B6800229A70BB6803337E225B
:105A70001A70E6E1FB681B680122DA70BB68033329
:105A80007E221A70DDE1FB681B680022DA70BB68B9
:105A900003337E221A70D4E1FB681B6800225A701F
:105AA000BB6803337E221A70CBE1FB681B680122BE
:105AB0005A70BB6803337E221A70C2E1FB681B6810
:105AC00002225A70BB6803337E221A70B9E1FB6868
:105AD0001B6803225A70BB6803337E221A70B0E140
